**HEADERVPVENDPMTPLUS-USB20220819084637
T1VP2022081908463722230000010000013880-0014          MISSION LINEN SERVICE                                                           SACRAMENTO                              CA95828      7211000000000000000MISSION LINEN                                                                   805-963-1841                            CA93103                V40179890                2022081720220818xxxxxxxxxxxx27743065616000000000000000000008453
T1VP202208190846372223000002151370-0001              BRUKER BIOSPIN CORP                                                             PITTSBURGH                              PA15253      5047000000000000000BRUKER BIOSPIN CORP.                                                            978-667-9580                            MA01821                V40178549                2022081720220818xxxxxxxxxxxx00656245036000000000000000000514285
T1VP202208190846372223000003151370-0001              BRUKER BIOSPIN CORP                                                             PITTSBURGH                              PA15253      5047000000000000000BRUKER BIOSPIN CORP.                                                            978-667-9580                            MA01821                V40179937                2022081720220818xxxxxxxxxxxx00656245028000000000000000000499763
T1VP20220819084637222300000412991-0001               ORACLE AMERICA INC                                                              LOS ANGELES                             CA90088      5734000000000000000ORACLE AMERICA, INC.                                                            888-803-7414                            CA94065                V40179989                2022081720220818xxxxxxxxxxxx00145341990000000000000000001248750
T1VP20220819084637222300000542026-0001               SIERRA CIRCUITS INC                                                             SUNNYVALE                               CA94086      5732000000000000000SIERRA CIRCUITS INC                                                             408-735-7137                            CA94086                V40180228                2022081720220818xxxxxxxxxxxx52270529541000000000000000000999111
T1VP20220819084637222300000620526-0001               CRAIG X ALPHA DDS                                                               SACRAMENTO                              CA95816      8021000000000000000G HEISE & C ALPHA OMS                                                           916-4421882                             CA95815                V40180330                2022081720220818xxxxxxxxxxxx00012059834000000000000000000011040
T1VP20220819084637222300000721102-0001               DIAGNOSTIC PATHOLOGY MEDIC                                                      SACRAMENTO                              CA95816      8099000000000000000DIAGNOSTIC PATHOLOGY MEDI                                                       916-4476267                             CA95816                V40180331                2022081620220818xxxxxxxxxxxx72292088684000000000000000000014262
T1VP20220819084637222300000812991-0001               ORACLE AMERICA INC                                                              LOS ANGELES                             CA90088      5734000000000000000ORACLE AMERICA, INC.                                                            888-803-7414                            CA94065                V40180396                2022081720220818xxxxxxxxxxxx00145341735000000000000000001274122
T1VP20220819084637222300000912991-0001               ORACLE AMERICA INC                                                              LOS ANGELES                             CA90088      5734000000000000000ORACLE AMERICA, INC.                                                            888-803-7414                            CA94065                V40180396                2022081720220818xxxxxxxxxxxx00145341784000000000000000002006768
T1VP20220819084637222300001010117-0001               THOMSON REUTERS                                                                 CAROL STREAM                            IL60197      8999000000000000000THOMSON WEST*TCD                                                                800-328-4880                            MN55123                V40180418                2022081720220818xxxxxxxxxxxx00249174891000000000000000000108087
T1VP20220819084637222300001192757-0001               AGILENT TECHNOLOGIES                                                            LOS ANGELES                             CA90074      5065000000000000000AGILENT TECHNOLOGIES,                                                           800-2279770                             CA95051                V40180338                2022081620220818xxxxxxxxxxxx10031432456000000000000000004214696
T1VP20220819084637222300001212284-0001               BIO-RAD LABORATORIES INC                                                        LOS ANGELES                             CA90084      5047000000000000000BIO RAD LABORATORIES                                                            800-2246723                             CA94547                V40180448                2022081720220818xxxxxxxxxxxx72299016193000000000000000000105366
T1VP20220819084637222300001312991-0001               ORACLE AMERICA INC                                                              LOS ANGELES                             CA90088      5734000000000000000ORACLE AMERICA, INC.                                                            888-803-7414                            CA94065                V40180486                2022081720220818xxxxxxxxxxxx00145341909000000000000000000508366
T1VP20220819084637222300001412991-0001               ORACLE AMERICA INC                                                              LOS ANGELES                             CA90088      5734000000000000000ORACLE AMERICA, INC.                                                            888-803-7414                            CA94065                V40180486                2022081720220818xxxxxxxxxxxx00145341982000000000000000000215607
T1VP2022081908463722230000151010325-0001             PACIFIC SOUTH WEST IRRIGAT                                                      STOCKTON                                CA95215      1799000000000000000SQ *PACIFIC SOUTHWEST IRR                                                       STOCKTON                                CA95215                V40180487                2022081720220818xxxxxxxxxxxx00499339277000000071700000000996858
T1VP20220819084637222300001610117-0001               THOMSON WEST                                                                    CAROL STREAM                            IL60197      8999000000000000000THOMSON WEST*TCD                                                                800-328-4880                            MN55123                V40180501                2022081720220818xxxxxxxxxxxx00249174859000000000000000000049336
T1VP20220819084637222300001710117-0001               THOMSON WEST                                                                    CAROL STREAM                            IL60197      8999000000000000000THOMSON WEST*TCD                                                                800-328-4880                            MN55123                V40180501                2022081720220818xxxxxxxxxxxx00249174875000000000000000000018340
T1VP20220819084637222300001825748-0001               LAERDAL MEDICAL CORPORATIO                                                      PHILADELPHIA                            PA19178      5047000000000000000LAERDALMEDICAL_US_USD_MOT                                                       WAPPINGERS FA                           NY12590                V40180506                2022081620220818xxxxxxxxxxxx01371518727000000000000000000172700
T1VP20220819084637222300001992757-0001               AGILENT TECHNOLOGIES                                                            LOS ANGELES                             CA90074      5065000000000000000AGILENT TECHNOLOGIES,                                                           800-2279770                             CA95051                V40180508                2022081620220818xxxxxxxxxxxx10031439006000000000000000000093123
T1VP2022081908463722230000207495-0001                AIRGAS USA LLC                                                                  PASADENA                                CA91189      4900000000000000000AIRGAS USA, LLC                                                                 866-935-3370                            CA90808                V40180509                2022081720220818xxxxxxxxxxxx00594214789000000000000000000436336
T1VP202208190846372223000021160940-0001              BIOLEGEND INC                                                                   PASADENA                                CA91189      5047000000000000000BIOLEGEND, INC.                                                                 858-455-9588                            CA92121                V40180510                2022081820220818xxxxxxxxxxxx00731785383000000000000000000022269
T1VP20220819084637222300002238343-0001               ERBE USA INC                                                                    MARIETTA                                GA30067      5047000000000000000ERBE USA INC                                                                    770-955-4400                            GA30067                V40180516                2022081620220818xxxxxxxxxxxx00145681236000000000000000058151834
T1VP2022081908463722230000231054677-0001             ODP BUSINESS SOLUTIONS LLC                                                      BOCA RATON                              FL33496      5111000000000000000OFFICE DEPOT #1099                                                              800-463-3768                            FL33445                V40180535                2022081620220818xxxxxxxxxxxx00749514065000000000000000000271454
T1VP202208190846372223000024455-0001                 READEX                                                                          CHESTER                                 VT05143      7399000000000000000NEWSBANK INC/TCR HS                                                             800-243-7694                            FL34108                V40180540                2022081720220818xxxxxxxxxxxx00663113102000000000000000000329600
T1VP20220819084637222300002515802-0001               XEROX CORPORATION                                                               PASADENA                                CA91109      5044000000000000000XEROX CORPORATION/RBO                                                           888-888-8888                            NY14644                V40180547                2022081720220818xxxxxxxxxxxx01997103813000000000000000000000474
T1VP2022081908463722230000267495-0001                AIRGAS NATIONAL CARBONATIO                                                      DALLAS                                  TX75373      4900000000000000000AIRGAS USA, LLC                                                                 866-935-3370                            NC28208                V40180551                2022081720220818xxxxxxxxxxxx00594234050000000000000000000006778
T1VP2022081908463722230000277495-0001                AIRGAS USA LLC                                                                  PASADENA                                CA91189      4900000000000000000AIRGAS USA, LLC                                                                 866-935-3370                            CA90808                V40180552                2022081720220818xxxxxxxxxxxx00594215828000000000000000000701049
T1VP2022081908463722230000283053-0001                ARAMARK                                                                         CHICAGO                                 IL60673      5964000000000000000ARAMARK UNIFORM                                                                 800-504-0328                            KY40509                V40180556                2022081820220818xxxxxxxxxxxx00839237337000000000000000002666300
T1VP2022081908463722230000293053-0001                ARAMARK UNIFORM SERVICES                                                        PASADENA                                CA91189      5964000000000000000ARAMARK UNIFORM                                                                 800-504-0328                            KY40509                V40180557                2022081820220818xxxxxxxxxxxx00839531846000000000000000000011541
T1VP2022081908463722230000301014198-0001             ENVIGO RMS LLC                                                                  CHICAGO                                 IL60674      5047000000000000000ENVIGO RMS INC                                                                  INDIANAPOLIS                            IN46250                V40180574                2022081620220818xxxxxxxxxxxx50000020985000000000000000000159942
T1VP202208190846372223000031181441-0001              GENESEE SCIENTIFIC CORPORA                                                      SAN DIEGO                               CA92126      5046000000000000000GENESEE SCIENTIFIC CORP                                                         800-7895550                             CA92020                V40180578                2022081620220818xxxxxxxxxxxx00019202419000000000000000000436004
T1VP20220819084637222300003210623-0001               HARDY DIAGNOSTICS                                                               SANTA MARIA                             CA93455      5047000000000000000HARDY DIAGNOSTICS                                                               805-346-2766                            CA93455                V40180581                2022081620220818xxxxxxxxxxxx26307456927000000001892000000047300
T1VP20220819084637222300003310623-0001               HARDY DIAGNOSTICS                                                               CINCINNATI                              OH45264      5047000000000000000HARDY DIAGNOSTICS                                                               805-346-2766                            CA93455                V40180582                2022081620220818xxxxxxxxxxxx26990458826000000002490000000062267
T1VP2022081908463722230000346305-0001                MXR IMAGING INC                                                                 SAN DIEGO                               CA92123      5047000000000000000MERRY X-RAY SOURCE ONE                                                          440-7011605                             OH44060                V40180600                2022081620220818xxxxxxxxxxxx80000002045000000004339000000086782
T1VP2022081908463722230000356679-0001                NEWCO DISTRIBUTORS INC                                                          RANCHO CUCAMONGA                        CA91729      5199000000000000000NEWCO                                                                           909-2912240                             CA91730                V40180601                2022081620220818xxxxxxxxxxxx00012319070000000105874000002033183
T1VP202208190846372223000036187135-0001              PENTAX MEDICAL COMPANY                                                          PHILADELPHIA                            PA19182      5047000000000000000PENTAX MEDICAL COMPANY                                                          201-571-2300                            NJ07645                V40180603                2022081720220818xxxxxxxxxxxx83728032800000000000000000000039000
T1VP202208190846372223000037                                                                                                                                                              5099000000000000000CURTIS                                                                          800-5932760                             CA94598                                         2022072920220818xxxxxxxxxxxx22300854152000000001204000000015799
T1VP20220819084637222300003814982-0001               MEDLINE INDUSTRIES                                                              PASADENA                                CA91185      5047000000000000000MEDLINE INDUSTRIES, LP                                                          800-6335463                             IL60093                V40180594                2022081620220818xxxxxxxxxxxx62291559314000000000000000000016977
T1VP202208190846372223000039338814-0001              QUALITY AIR SERVICES                                                            SAN LEANDRO                             CA94577      1711000000000000000QUALITY AIR SERVICES                                                            800-4498012                             CA94577                V40180605                2022081620220818xxxxxxxxxxxx52400156580000000000000000003438766
T1VP202208190846372223000040434266-0001              QUINTARA BIOSCIENCES INC                                                        BERKELEY                                CA94707      8099000000000000000QUINTARA BIOSCIENCES INC                                                        415-7382509                             CA94806                V40180606                2022081620220818xxxxxxxxxxxx00018152810000000000000000000113800
T1VP202208190846372223000041150610-0001              READYREFRESH                                                                    LOUISVILLE                              KY40285      5999000000000000000READYREFRESH BY NESTLE                                                          800-274-5282                            CA92821                V40180607                2022081720220818xxxxxxxxxxxx00249140991000000000000000000096303
T1VP202208190846372223000042150610-0001              READYREFRESH                                                                    LOUISVILLE                              KY40285      5999000000000000000READYREFRESH BY NESTLE                                                          800-274-5282                            CA92821                V40180608                2022081720220818xxxxxxxxxxxx00206739488000000000000000000007597
T1VP20220819084637222300004314217-0001               SACRAMENTO RENDERING COMPA                                                      SACRAMENTO                              CA95830      5999000000000000000SACRAMENTO RENDERING CO                                                         916-3634821                             CA95830                V40180612                2022081720220818xxxxxxxxxxxx00011187213000000000000000001672500
T1VP20220819084637222300004470527-0001               VETERINARY PRACTICE ASSOCI                                                      SAN DIEGO                               CA92121      0742000000000000000VETERINARY SPECIALTY HOSP                                                       858-8757500                             CA92121                V40180630                2022081620220818xxxxxxxxxxxx54501777184000000000000000000430744
T1VP20220819084637222300004515483-0001               SIERRA OFFICE SUPPLIES & P                                                      SACRAMENTO                              CA95827      2741000000000000000SIERRA OFFICE SYSTEMS AN                                                        916-369-0491                            CA95827                V40180615                2022081620220818xxxxxxxxxxxx26467712770000000012420000000154365
T1VP202208190846372223000046188704-0001              SPRINGER CUSTOMER SERVICE                                                       NEWARK                                  NJ07101      2741000000000000000WWW.SPRINGER.COM                                                                212-4601500                             NY10004                V40180616                2022081720220818xxxxxxxxxxxx54170948667000000000000000000276000
T1VP2022081908463722230000474234-0001                TAKARA BIO USA INC                                                              SAN FRANCISCO                           CA94145      5047000000000000000TAKARA BIO USA INC                                                              650-9197353                             CA94043                V40180619                2022081720220818xxxxxxxxxxxx42295478991000000000000000000026164
T1VP202208190846372223000048142727-0001              THERMO ELECTRON NORTH AMER                                                      ATLANTA                                 GA30374      5047000000000000000TFS*THERMOELECTRONNORT                                                          800-532-4752                            FL33407                V40180622                2022081720220818xxxxxxxxxxxx00528525359000000002358000000034881
T1VP2022081908463722230000492957-0001                TSI INC                                                                         MINNEAPOLIS                             MN55486      5999000000000000000TSI*SERVICE                                                                     651-483-0900                            MN55126                V40180626                2022081820220818xxxxxxxxxxxx00897474830000000751100000010736675
T1VP20220819084637222300005015802-0001               XEROX CORPORATION                                                               PASADENA                                CA91109      5044000000000000000XEROX CORPORATION/RBO                                                           888-888-8888                            NY14644                V40180636                2022081720220818xxxxxxxxxxxx01997097221000000006475000000116381
T1VP202208190846372223000051464443-0001              AD CLUB RECRUITMENT ADVERT                                                      MODESTO                                 CA95350      7311000000000000000AD CLUB ADVERTISING                                                             209-3431900                             CA95350                V40180639                2022081720220818xxxxxxxxxxxx62292952419000000000000000000049500
T1VP2022081908463722230000520001012576-0004          ADI                                                                             DALLAS                                  TX75373      5065000000000000000ADI-C1                                                                          800-545-6776                            NY11747                V40180640                2022081820220818xxxxxxxxxxxx00834275068000000000000000000058555
T1VP2022081908463722230000533285-0001                ALL SEASONS PAINT DAVIS                                                         DAVIS                                   CA95616      5198000000000000000ALL SEASONS PAINT                                                               WOODLAND                                CA95695                V40180644                2022081720220818xxxxxxxxxxxx00018600022000000000000000000099923
T1VP20220819084637222300005476927-0001               APPLIED MEMBRANES INC                                                           CITY OF INDUSTRY                        CA91716      5046000000000000000APPLIED MEMBRANES INC                                                           760-7273711                             CA92081                V40180647                2022081720220818xxxxxxxxxxxx62292739642000000000000000000187353
T1VP202208190846372223000055407-0001                 ARC DOCUMENT SOLUIONS LLC                                                       LOS ANGELES                             CA90051      2741000000000000000ARC DOCUMENT SOLUTIONS                                                          SANTA CLARA                             CA95050                V40180649                2022081720220818xxxxxxxxxxxx22304468399000000000000000000108142
T1VP202208190846372223000056135688-0001              AVANTE HEALTH SOLUTIONS                                                         LOUISVILLE                              KY40223      5047000000000000000D.R.E., INC.                                                                    502-244-4444                            KY40223                V40180651                2022081820220818xxxxxxxxxxxx00721162601000000000000000000071434
T1VP202208190846372223000057147611-0001              CALTROL INC                                                                     LOS ANGELES                             CA90074      5085000000000000000CALTROL- INC.                                                                   702-9661800                             NV89119                V40180656                2022081720220818xxxxxxxxxxxx00014847466000000001115000000111500
T1VP2022081908463722230000581014394-0001             CAMFIL USA INC                                                                  CHICAGO                                 IL60677      5085000000000000000CAMFIL USA INC.                                                                 973-616-7300                            NJ07457                V40180657                2022081720220818xxxxxxxxxxxx06000093395000000000000000000013560
T1VP202208190846372223000059169616-0001              GENSCRIPT USA INCORPORATED                                                      PISCATAWAY                              NJ08854      5047000000000000000GENSCRIPT USA                                                                   877-436-7274                            NJ08854                V40180675                2022081820220818xxxxxxxxxxxx00839769230000000000000000000045250
T1VP2022081908463722230000606093-0001                CLASSIC AWARDS & PROMOTION                                                      SPARKS                                  NV89441      5999000000000000000IN *CLASSIC AWARDS AND PR                                                       916-4448339                             CA95816                V40180660                2022081720220818xxxxxxxxxxxx00603127121000000000000000000010809
T1VP20220819084637222300006162671-0001               DRAEGER INC                                                                     NEWARK                                  NJ07101      5047000000000000000DRAEGER MEDICAL INC                                                             800-4372437                             PA18969                V40180664                2022081720220818xxxxxxxxxxxx42300683954000000013584000000271680
T1VP20220819084637222300006217035-0001               COVETRUS NORTH AMERICA                                                          CHICAGO                                 IL60673      5047000000000000000COVETRUS NORTH AMERICA                                                          614-761-9095                            OH43017                V40180662                2022081720220818xxxxxxxxxxxx00748882561000000000000000000161902
T1VP202208190846372223000063470039-0001              EVOQUA WATER TECHNOLOGIES                                                       CHICAGO                                 IL60673      5074000000000000000EVOQUA WATER TECHNOLOGIES                                                       800-4667873                             DE19801                V40180666                2022081720220818xxxxxxxxxxxx54205561733000000000948000000022858
T1VP202208190846372223000064470039-0001              EWT HOLDINGS III CORP                                                           SACRAMENTO                              CA95838      5074000000000000000EVOQUA WATER TECHNOLOGIES                                                       800-4667873                             DE19801                V40180668                2022081720220818xxxxxxxxxxxx54205424585000000000067000000032409
T1VP2022081908463722230000654923-0001                FASTENAL                                                                        WINONA                                  MN55987      5085000000000000000FASTENAL COMPANY 01MN019                                                        507-453-8920                            MN55987                V40180669                2022081720220818xxxxxxxxxxxx00154922386000000000000000001608238
T1VP202208190846372223000066417225-0001              HD SUPPLY FACILITIES MAINT                                                      SAN DIEGO                               CA92150      5047000000000000000BTS*HD SUPPLY FACILITIES                                                        800-798-8888                            GA30339                V40180681                2022081720220818xxxxxxxxxxxx00409748157000000008671000000216778
T1VP2022081908463722230000676306-0001                MILA INTERNATIONAL INC                                                          FLORENCE                                KY41042      7399000000000000000MILA INTERNATIONAL                                                              859-957-1722                            KY41042                V40180700                2022081720220818xxxxxxxxxxxx00588141924000000017778000000355555
T1VP20220819084637222300006810983-0001               HERZOG SURGICAL INC                                                             SACRAMENTO                              CA95841      5047000000000000000HERZOG SURGICAL INC                                                             916-334-1288                            CA95841                V40180682                2022081720220818xxxxxxxxxxxx00588142005000000001050000000021000
T1VP20220819084637222300006929546-0001               HESKA CORPORATION                                                               CHICAGO                                 IL60673      5047000000000000000HESKA CORPORATION                                                               800-464-3752                            CO80538                V40180683                2022081720220818xxxxxxxxxxxx06037700182000000000000000000109437
T1VP20220819084637222300007064733-0001               HILLYARD SACRAMENTO                                                             KANSAS CITY                             MO64180      2842000000000000000HILLYARD INC SACRAMENTO                                                         800-365-1555                            CA64501                V40180684                2022081720220818xxxxxxxxxxxx06000022643000000003682000000048314
T1VP202208190846372223000071235893-0001              IDEXX DISTRIBUTION INC                                                          ATLANTA                                 GA30392      5047000000000000000IDEXX DISTRIBUTION (BILL                                                        800-950-1292                            ME04092                V40180685                2022081720220818xxxxxxxxxxxx08040069461000000007522000000188069
T1VP2022081908463722230000726308-0001                MILES TREASTER & ASSOCIATE                                                      SACRAMENTO                              CA95811      5021000000000000000MILES TREASTER & ASSOCIA                                                        916-373-1800                            CA95811                V40180701                2022081820220818xxxxxxxxxxxx83754278590000000034419000000427781
T1VP2022081908463722230000730000013880-0002          MISSION UNIFORM SERVICE                                                         SACRAMENTO                              CA95828      7211000000000000000MISSION LINEN                                                                   805-963-1841                            CA93103                V40180702                2022081720220818xxxxxxxxxxxx27743064858000000000000000000027531
T1VP202208190846372223000074162713-0001              MUNTERS CORPORATION                                                             PALATINE                                IL60055      5046000000000000000MUNTERS CORPORATION                                                             978-241-1100                            MA01913                V40180703                2022081720220818xxxxxxxxxxxx06000906968000000003299000000048800
T1VP20220819084637222300007514250-0001               MWI                                                                             LOS ANGELES                             CA90074      5047000000000000000MWI*VETERINARYSUPPLY                                                            800-896-8873                            ID83705                V40180704                2022081720220818xxxxxxxxxxxx00706748617000000084158000002103969
T1VP2022081908463722230000766882-0001                JTS ANIMAL BEDDING                                                              REDMOND                                 OR97756      5021000000000000000IN *JTS ANIMAL BEDDING                                                          541-9232603                             OR97756                V40180689                2022081720220818xxxxxxxxxxxx00603176136000000000000000000609060
T1VP202208190846372223000077399096-0001              NEOGENOMICS LABORATORIES I                                                      ORLANDO                                 FL32886      8071000000000000000NEOGENOMICS LABORATORIES                                                        866-776-5907                            FL33913                V40180705                2022081720220818xxxxxxxxxxxx26738148543000000000000000000026564
T1VP202208190846372223000078399096-0001              NEOGENOMICS LABORATORIES I                                                      ATLANTA                                 GA30394      8071000000000000000NEOGENOMICS LABORATORIES                                                        866-776-5907                            FL33913                V40180706                2022081720220818xxxxxxxxxxxx26738150739000000000000000000150400
T1VP202208190846372223000079311174-0001              KEYENCE                                                                         PASADENA                                CA91185      5085000000000000000KEYENCE CORP OF AMERICA                                                         201-930-0100                            NJ07407                V40180692                2022081720220818xxxxxxxxxxxx62665376675000000000000000005567614
T1VP202208190846372223000080224662-0001              KONECRANS INC                                                                   PITTSBURG                               PA15264      5046000000000000000KONECRANES INC                                                                  937-525-5533                            OH45502                V40180693                2022081720220818xxxxxxxxxxxx06000801706000000000000000000026000
T1VP20220819084637222300008175295-0001               LANDAUER INC                                                                    CHICAGO                                 IL60680      5046000000000000000LANDAUER INC                                                                    708-4418299                             IL60425                V40180694                2022081720220818xxxxxxxxxxxx32307111508000000000000000000010150
T1VP20220819084637222300008256635-0001               PHARMEDIX                                                                       UNION CITY                              CA94587      5047000000000000000PHARMEDIX                                                                       510-7831811                             CA94587                V40180711                2022081720220818xxxxxxxxxxxx41944104221000000000000000000005339
T1VP2022081908463722230000831034763-0001             PLATT                                                                           BOSTON                                  MA02241      5065000000000000000PLATT ELECTRIC 001                                                              5036416121                              OR97005                V40180712                2022081720220818xxxxxxxxxxxx86588500760000000000133000000088743
T1VP2022081908463722230000841010923-0001             ORKIN SERVICES OF CALIFORN                                                      PASADENA                                CA91109      7342000000000000000ORKIN  LLC 002                                                                  877-620-8282                            GA30324                V40180709                2022081720220818xxxxxxxxxxxx00944709866000000000000000000025000
T1VP202208190846372223000085187135-0001              PENTAX MEDICAL COMPANY                                                          PHILADELPHIA                            PA19182      5047000000000000000PENTAX MEDICAL COMPANY                                                          201-571-2300                            NJ07645                V40180710                2022081720220818xxxxxxxxxxxx83318517806000000000000000000243811
T1VP2022081908463722230000861836-0001                PROMEGA CORPORATION                                                             CHICAGO                                 IL60695      5199000000000000000PROMEGA CO  *BIOREAGEN                                                          800-356-9526                            WI53711                V40180713                2022081820220818xxxxxxxxxxxx00738920181000000001808000000055945
T1VP2022081908463722230000871034763-0001             REXEL                                                                           LOS ANGELES                             CA90074      5065000000000000000PLATT ELECTRIC 001                                                              5036416121                              OR97005                V40180716                2022081720220818xxxxxxxxxxxx86588500752000000000002000000001301
T1VP2022081908463722230000882897-0001                ROMER LABS INC                                                                  DALLAS                                  TX75312      8734000000000000000ROMER LABS INC                                                                  636-5838600                             MO63084                V40180718                2022081720220818xxxxxxxxxxxx62292821986000000000000000000052767
T1VP20220819084637222300008914217-0001               SACRAMENTO RENDERING COMPA                                                      SACRAMENTO                              CA95830      5999000000000000000SACRAMENTO RENDERING CO                                                         916-3634821                             CA95830                V40180719                2022081720220818xxxxxxxxxxxx00011192775000000000000000000057700
T1VP2022081908463722230000901031389-0001             SHERYL LYNN THOMAS                                                              OAKLEY                                  CA94561      7372000000000000000SQ *PUR MUSIC MARKE                                                             877-417-4551                            CA94561                V40180721                2022081620220818xxxxxxxxxxxx55911072151000000000000000000444000
T1VP202208190846372223000091130451-0001              STATLAB                                                                         DALLAS                                  TX75267      5047000000000000000STATLAB MEDICAL PRODUCTS                                                        972-436-1010                            TX75069                V40180725                2022081720220818xxxxxxxxxxxx12633754180000000000515000000010305
T1VP202208190846372223000092129399-0001              STERICYCLE INC                                                                  CAROL STREAM                            IL60197      7399000000000000000STERICYCLE                                                                      866-783-7422                            IL60045                V40180726                2022081720220818xxxxxxxxxxxx27019986222000000000000000000316014
T1VP2022081908463722230000930000015621-0044          SIEMENS INDUSTRY INC                                                            CAROL STREAM                            IL60132      5099000000000000000SIEMENS INDUSTRY INC                                                            847-215-1000                            IL60089                V40180723                2022081720220818xxxxxxxxxxxx69174164763000000000000000000030562
T1VP2022081908463722230000942957-0001                TSI INC                                                                         MINNEAPOLIS                             MN55486      5999000000000000000TSI*SERVICE                                                                     651-483-0900                            MN55126                V40180732                2022081820220818xxxxxxxxxxxx00897474863000000000000000000107600
T1VP2022081908463722230000951031784-0001             TWIST BIOSCIENCE CORPORATI                                                      PASADENA                                CA91185      8999000000000000000TWIST BIOSCIENCE                                                                415-3935328                             CA94080                V40180733                2022081720220818xxxxxxxxxxxx62292573173000000000000000000006491
T1VP2022081908463722230000968135-0001                ULINE                                                                           CHICAGO                                 IL60680      5964000000000000000ULINE  *SHIP SUPPLIES                                                           800-295-5510                            WI53158                V40180734                2022081820220818xxxxxxxxxxxx00844963448000000004939000000128319
T1VP20220819084637222300009716058-0001               VWR INTERNATIONAL LLC                                                           PITTSBURGH                              PA15264      5047000000000000000BST*VWR INTL                                                                    610-332-9038                            PA19087                V40180736                2022081720220818xxxxxxxxxxxx00409749148000000014270000000713512
T1VP2022081908463722230000981238-0001                WESTERN EXTERMINATOR COMPA                                                      CINCINATTI                              OH45274      7342000000000000000WWP*WESTERN EXTERMINATOR                                                        800-839-2999                            PA19610                V40180737                2022081720220818xxxxxxxxxxxx00409749221000000000000000000082565
T1VP20220819084637222300009970262-0001               WOODLAND WINDUSTRIAL                                                            WOODLAND                                CA95776      5074000000000000000WOODLAND WINDUSTRIAL C                                                          WOODLAND                                CA95776                V40180738                2022081720220818xxxxxxxxxxxx00714508315000000045012000000665874
T1VP2022081908463722230001001010791-0001             MCKESSON MEDICAL SURGICAL                                                       ATLANTA                                 GA31193      5047000000000000000BTS*MCKESSONMS                                                                  609-245-0672                            VA23233                V40179309                2022081720220818xxxxxxxxxxxx00409804810000000000053000000026275
T1VP20220819084637222300010115802-0001               XEROX CORPORATION                                                               PASADENA                                CA91109      5044000000000000000XEROX CORPORATION/RBO                                                           888-888-8888                            NY14644                V40179430                2022081720220818xxxxxxxxxxxx01997317207000000001337000000019777
T1VP20220819084637222300010212284-0001               BIO-RAD LABORATORIES INC                                                        LOS ANGELES                             CA90084      5047000000000000000BIO RAD LABORATORIES                                                            800-2246723                             CA94547                V40179749                2022081720220818xxxxxxxxxxxx72299016292000000000000000000024215
**TRAILERVP000102000111554348
